{
  "contractName": "Visitor",
  "abi": [
    {
      "inputs": [
        {
          "internalType": "uint256",
          "name": "",
          "type": "uint256"
        }
      ],
      "name": "visitors",
      "outputs": [
        {
          "internalType": "address",
          "name": "",
          "type": "address"
        }
      ],
      "stateMutability": "view",
      "type": "function"
    },
    {
      "inputs": [
        {
          "internalType": "uint256",
          "name": "boothID",
          "type": "uint256"
        }
      ],
      "name": "signin",
      "outputs": [
        {
          "internalType": "uint256",
          "name": "",
          "type": "uint256"
        }
      ],
      "stateMutability": "nonpayable",
      "type": "function"
    },
    {
      "inputs": [],
      "name": "getVisitors",
      "outputs": [
        {
          "internalType": "address[16]",
          "name": "",
          "type": "address[16]"
        }
      ],
      "stateMutability": "view",
      "type": "function"
    }
  ],
  "bytecode": "0x608060405234801561001057600080fd5b50610430806100206000396000f3fe608060405234801561001057600080fd5b50600436106100415760003560e01c806342b71a361461004657806363180e37146100765780639b7d30dd14610094575b600080fd5b610060600480360381019061005b9190610251565b6100c4565b60405161006d91906102bf565b60405180910390f35b61007e6100fa565b60405161008b9190610385565b60405180910390f35b6100ae60048036038101906100a99190610251565b61017b565b6040516100bb91906103b0565b60405180910390f35b600081601081106100d457600080fd5b016000915054906101000a900473ffffffffffffffffffffffffffffffffffffffff1681565b6101026101f3565b6000601080602002604051908101604052809291908260108015610171576020028201915b8160009054906101000a900473ffffffffffffffffffffffffffffffffffffffff1673ffffffffffffffffffffffffffffffffffffffff1681526020019060010190808311610127575b5050505050905090565b600080821015801561018e5750600f8211155b61019757600080fd5b33600083601081106101ac576101ab6103cb565b5b0160006101000a81548173ffffffffffffffffffffffffffffffffffffffff021916908373ffffffffffffffffffffffffffffffffffffffff160217905550819050919050565b604051806102000160405280601090602082028036833780820191505090505090565b600080fd5b6000819050919050565b61022e8161021b565b811461023957600080fd5b50565b60008135905061024b81610225565b92915050565b60006020828403121561026757610266610216565b5b60006102758482850161023c565b91505092915050565b600073ffffffffffffffffffffffffffffffffffffffff82169050919050565b60006102a98261027e565b9050919050565b6102b98161029e565b82525050565b60006020820190506102d460008301846102b0565b92915050565b600060109050919050565b600081905092915050565b6000819050919050565b6103038161029e565b82525050565b600061031583836102fa565b60208301905092915050565b6000602082019050919050565b610337816102da565b61034181846102e5565b925061034c826102f0565b8060005b8381101561037d5781516103648782610309565b965061036f83610321565b925050600181019050610350565b505050505050565b60006102008201905061039b600083018461032e565b92915050565b6103aa8161021b565b82525050565b60006020820190506103c560008301846103a1565b92915050565b7f4e487b7100000000000000000000000000000000000000000000000000000000600052603260045260246000fdfea264697066735822122095a38d33824e1df2c29cf06ebea0f1c4978f5c518a319968e55f4a2cf9bdf96c64736f6c63430008100033",
  "immutableReferences": {},
  "source": "pragma solidity ^0.8.16;\r\n\r\ncontract Visitor {\r\n\r\n  address[16] public visitors;  // \r\n\r\n    // \r\n  function signin(uint boothID) public returns (uint) {\r\n    require(boothID >= 0 && boothID <= 15);  // id\r\n\r\n    visitors[boothID] = msg.sender;        // \r\n    return boothID;\r\n  }\r\n\r\n  // \r\n  function getVisitors() public view returns (address[16] memory) {\r\n    return visitors;\r\n  }\r\n\r\n}",
  "sourcePath": "D:\\thales\\casia\\itsc-meta\\contracts\\visitor.sol",
  "compiler": {
    "name": "solc",
    "version": "0.8.16+commit.07a7930e.Emscripten.clang"
  },
  "schemaVersion": "3.4.9",
  "updatedAt": "2022-09-06T11:26:58.782Z",
  "devdoc": {
    "kind": "dev",
    "methods": {},
    "version": 1
  },
  "userdoc": {
    "kind": "user",
    "methods": {},
    "version": 1
  }
}